:100000000C9461000C947E000C947E000C947E0095
:100010000C947E000C947E000C947E000C947E0068
:100020000C947E000C947E000C947E000C947E0058
:100030000C947E000C947E000C947E000C947E0048
:100040000C9417010C947E000C947E000C947E009E
:100050000C947E000C947E000C947E000C947E0028
:100060000C947E000C947E00000000002500280007
:100070002B0000000000240027002A0000000000E0
:1000800023002600290004040404040404040202DA
:100090000202020203030303030301020408102007
:1000A0004080010204081020010204081020000012
:1000B0000008000201000003040700000000000027
:1000C000000011241FBECFEFD8E0DEBFCDBF11E08E
:1000D000A0E0B1E0E2E7F4E002C005900D92A033A9
:1000E000B107D9F721E0A0E3B1E001C01D92A93A20
:1000F000B207E1F70E9461010C9437020C940000F2
:10010000833081F028F4813099F08230A9F008958D
:100110008730A9F08830C9F08430B1F48091800034
:100120008F7D03C0809180008F7780938000089539
:1001300084B58F7784BD089584B58F7DFBCF809182
:10014000B0008F778093B00008958091B0008F7DCC
:10015000F9CFCF93DF93282F30E0F901E255FF4F1D
:100160008491F901E656FF4FD491F901EA57FF4F08
:10017000C491CC23A1F081110E948000EC2FF0E00B
:10018000EE0FFF1FE458FF4FA591B491EC91ED23C2
:1001900081E090E009F480E0DF91CF91089580E064
:1001A00090E0FACF0F931F93CF93DF932EE0289F19
:1001B000F001299FF00D1124E05DFE4F86819781AB
:1001C000A085B18582879387A487B587C081D181B7
:1001D0008C2F0E94A9008C019E013327F901E25562
:1001E000FF4F8491F901E656FF4FD491F901EA5788
:1001F000FF4FC491CC23A1F081110E948000EC2F0D
:10020000F0E0EE0FFF1FE859FF4FA591B4918FB7B3
:10021000F894EC91012B49F0D095DE23DC938FBF4D
:10022000DF91CF911F910F910895DE2BF7CF1F9291
:100230000F920FB60F9211242F933F938F939F939A
:10024000AF93BF938091A5019091A601A091A701C2
:10025000B091A8013091A40123E0230F2D3758F568
:100260000196A11DB11D2093A4018093A501909337
:10027000A601A093A701B093A8018091A00190913D
:10028000A101A091A201B091A3010196A11DB11DF0
:100290008093A0019093A101A093A201B093A30128
:1002A000BF91AF919F918F913F912F910F900FBE72
:1002B0000F901F90189526E8230F0296A11DB11DDF
:1002C000D2CF789484B5826084BD84B5816084BDCA
:1002D00085B5826085BD85B5816085BD80916E00E4
:1002E000816080936E001092810080918100826015
:1002F0008093810080918100816080938100809152
:1003000080008160809380008091B1008460809340
:10031000B1008091B00081608093B00080917A003C
:10032000846080937A0080917A00826080937A0062
:1003300080917A00816080937A0080917A00806851
:1003400080937A001092C100C0E2D1E020E131E058
:1003500040E051E0A0E3B1E08991999111969C931E
:100360008E93F901619171919F0113967C936E9325
:100370001297FA0161917191AF0115967C936E937A
:1003800014979927FC01E656FF4F64918A579F4FB7
:10039000FC0184918823A1F090E0880F991FFC0153
:1003A000EE58FF4F05911491FC01E859FF4F8591DC
:1003B00094918FB7F894F8019081692B60838FBF77
:1003C0001E96F1E0C033DF0709F0C6CF80E0A82E0B
:1003D00080E0B82EC0E3D1E010E000E08FB7F894E1
:1003E000C090A501D090A601E090A701F090A801CF
:1003F0008FBFCE82DF82E886F9868A859B85AC85B1
:10040000BD85C81AD90AEA0AFB0A8A819B81092E8E
:10041000000CAA0BBB0BC816D906EA06FB0648F06F
:1004200088810E94A900892B21F0C8010E94D20076
:1004300010C08C819D81092E000CAA0BBB0BC81625
:10044000D906EA06FB0628F088810E94A900892BBC
:1004500061F30F5F1F4F2E960830110509F0BECFD4
:10046000A114B10409F4B6CF0E940000B3CFF894F0
:02047000FFCFBC
:10047200D007640001000100010001000100010039
:10048200C800640001000100010001000100010038
:100492000D00010001000100010001000100010046
:00000001FF
