:100000000C9435000C9452000C9452000C94520045
:100010000C9452000C9452000C9452000C94520018
:100020000C9452000C9452000C9452000C94520008
:100030000C9452000C9452000C9452000C945200F8
:100040000C940A010C9452000C9452000C9452002F
:100050000C9452000C9452000C9452000C945200D8
:100060000C9452000C9452004E0211241FBECFEF8C
:10007000D8E0DEBFCDBF21E0A0E0B1E001C01D921D
:10008000A136B207E1F710E0C5E3D0E004C0219744
:10009000FE010E949003C433D107C9F70E945401A6
:1000A0000C9496030C940000CF93FC01C62F10868D
:1000B00011861286138680E492E4AFE0B0E080837C
:1000C0009183A283B38384839583A683B78324E239
:1000D00030E03787268785E290E0918B808B40E285
:1000E00044874FED4587259A48EE53E060E070E085
:1000F000428B538B648B758B108211821282138218
:10010000448355836683778337872687918B808BDB
:1001100081E090E001C0880FCA95EAF78487982FA4
:100120009095958794B1892B84B9CF910895CF92FA
:10013000DF92EF92FF920F931F93FC019FB7F89409
:10014000409158015091590160915A0170915B01A1
:1001500086B5A89B06C08F3F21F04F5F5F4F6F4F62
:100160007F4F9FBF762F652F542F4427480F511D77
:10017000611D711D22E0440F551F661F771F2A95D0
:10018000D1F7A089B1898C919485F82EF922008548
:100190001185228533856A01FF2021F17B01C01A78
:1001A000D10AE20AF30A0081118122813381C0164B
:1001B000D106E206F30678F00481158126813781A5
:1001C000012B022B032B19F0958589238C934087F3
:1001D0005187628773871F910F91FF90EF90DF9097
:1001E000CF9008957B01C01AD10AE20AF30A048174
:1001F000158126813781C016D106E206F30658F331
:100200000081118122813381012B022B032BF9F212
:10021000892BDCCF1F920F920FB60F9211242F93D0
:100220003F938F939F93AF93BF9380915D01909184
:100230005E01A0915F01B091600130915C0123E00B
:10024000230F2D3758F50196A11DB11D20935C0198
:1002500080935D0190935E01A0935F01B093600174
:100260008091580190915901A0915A01B0915B0180
:100270000196A11DB11D8093580190935901A0933F
:100280005A01B0935B01BF91AF919F918F913F91C4
:100290002F910F900FBE0F901F90189526E8230FF7
:1002A0000296A11DB11DD2CF789484B5826084BD21
:1002B00084B5816084BD85B5826085BD85B581606A
:1002C00085BD80916E00816080936E0010928100E8
:1002D00080918100826080938100809181008160A3
:1002E0008093810080918000816080938000809164
:1002F000B10084608093B1008091B00081608093F0
:10030000B00080917A00846080937A0080917A00B6
:10031000826080937A0080917A00816080937A0075
:1003200080917A00806880937A001092C100C0901A
:100330005401D0905501E0905601F0905701C7014B
:10034000B6010E9495022DEC3CEC4CE45EE30E9469
:10035000FB020E9466026093420170934301809306
:10036000440190934501C61AD70AE80AF90AC092D7
:100370004601D0924701E0924801F0924901C090B5
:100380003E01D0903F01E0904001F0904101C70153
:10039000B6010E9495022DEC3CEC4CEC5EE30E9411
:1003A000FB020E94660260932C0170932D018093E2
:1003B0002E0190932F01C61AD70AE80AF90AC092B3
:1003C0003001D0923101E0923201F0923301C090BD
:1003D0002801D0902901E0902A01F0902B01C7015B
:1003E000B6010E9495022AE939E949E15FE30E94DA
:1003F000FB020E94660260931601709317018093BE
:10040000180190931901C61AD70AE80AF90AC0928E
:100410001A01D0921B01E0921C01F0921D01C090C4
:100420001201D0901301E0901401F0901501C70162
:10043000B6010E9495022DEC3CEC4CE45FE30E9477
:10044000FB020E9466026093000170930101809399
:10045000020190930301C61AD70AE80AF90AC0926A
:100460000401D0920501E0920601F0920701C0E07C
:10047000D0E082E491E00E9497008CE291E00E943B
:10048000970086E191E00E94970080E091E00E9451
:100490009700209771F30E940000EBCF70E060E0BE
:1004A00082E491E00E94540061E070E08CE291E00F
:1004B0000E94540062E070E086E191E00E945400E6
:1004C00063E070E080E091E00C9454000E94DA0256
:1004D00088F09F5798F0B92F9927B751B0F0E1F005
:1004E000660F771F881F991F1AF0BA95C9F714C0B5
:1004F000B13091F00E94F402B1E008950C94F4023E
:10050000672F782F8827B85F39F0B93FCCF38695ED
:1005100077956795B395D9F73EF49095809570954A
:1005200061957F4F8F4F9F4F0895E89409C097FBC7
:100530003EF490958095709561957F4F8F4F9F4FBA
:100540009923A9F0F92F96E9BB279395F6958795FE
:1005500077956795B795F111F8CFFAF4BB0F11F4C1
:1005600060FF1BC06F5F7F4F8F4F9F4F16C0882368
:1005700011F096E911C0772321F09EE8872F762F9E
:1005800005C0662371F096E8862F70E060E02AF0DF
:100590009A95660F771F881FDAF7880F96958795CB
:1005A00097F9089557FD9058440F551F59F05F3F34
:1005B00071F04795880F97FB991F61F09F3F79F085
:1005C00087950895121613061406551FF2CF469507
:1005D000F1DF08C0161617061806991FF1CF869589
:1005E0007105610508940895E894BB27662777276D
:1005F000CB0197F908950E940E030C947F030E948B
:10060000710338F00E94780320F0952311F00C94C8
:1006100068030C946E0311240C94F5020E94D2021C
:1006200070F3959FC1F3950F50E0551F629FF00145
:10063000729FBB27F00DB11D639FAA27F00DB11D5E
:10064000AA1F649F6627B00DA11D661F829F2227E7
:10065000B00DA11D621F739FB00DA11D621F839F6E
:10066000A00D611D221F749F3327A00D611D231F44
:10067000849F600D211D822F762F6A2F11249F5792
:1006800050409AF0F1F088234AF0EE0FFF1FBB1F95
:10069000661F771F881F91505040A9F79E3F510554
:1006A00080F00C9468030C94F5025F3FE4F3983EED
:1006B000D4F3869577956795B795F795E7959F5FFE
:1006C000C1F7FE2B880F911D9695879597F9089590
:1006D00097F99F6780E870E060E008959FEF80ECF5
:1006E000089500240A941616170618060906089598
:1006F00000240A9412161306140605060895092EFE
:100700000394000C11F4882352F0BB0F40F4BF2B6C
:1007100011F460FF04C06F5F7F4F8F4F9F4F0895AC
:10072000EE0FFF1F0590F491E02D0994F894FFCF90
:00000001FF
