:100000000C9434000C9446000C9446000C9446006A
:100010000C9446000C9446000C9446000C94460048
:100020000C9446000C9492000C9446000C944600EC
:100030000C9446000C9446000C9446000C94460028
:100040000C9448000C9446000C9446000C94460016
:100050000C9446000C9446000C9446000C94460008
:100060000C9446000C94460011241FBECFEFD8E03C
:10007000DEBFCDBF21E0A0E0B1E001C01D92A13103
:10008000B207E1F70E94B7000C9444010C94000001
:100090001F920F920FB60F9211242F933F938F93BD
:1000A0009F93AF93BF9380910D0190910E01A0910A
:1000B0000F01B091100130910C0123E0230F2D3777
:1000C00058F50196A11DB11D20930C0180930D01DF
:1000D00090930E01A0930F01B0931001809108013D
:1000E00090910901A0910A01B0910B010196A11D07
:1000F000B11D8093080190930901A0930A01B09368
:100100000B01BF91AF919F918F913F912F910F90D4
:100110000FBE0F901F90189526E8230F0296A11D81
:10012000B11DD2CF1F920F920FB60F9211248F9351
:100130009F93AF93BF938091000190910101A09193
:100140000201B09103010196A11DB11D8093000130
:1001500090930101A0930201B0930301BF91AF916D
:100160009F918F910F900FBE0F901F9018957894CC
:1001700084B5826084BD84B5816084BD85B58260AC
:1001800085BD85B5816085BD80916E00816080935D
:100190006E001092810080918100826080938100C6
:1001A00080918100816080938100809180008160D6
:1001B000809380008091B10084608093B100809131
:1001C000B00081608093B00080917A008460809359
:1001D0007A0080917A00826080937A0080917A0020
:1001E000816080937A0080917A00806880937A00A1
:1001F0001092C10080E284B983E08093B00084E073
:100200008093B1008FB780688FBF81E080937000CA
:1002100011E000E2C0E0D0E0109270008091000197
:1002200090910101A0910201B0910301109370001F
:100230004091040150910501609106017091070100
:100240006C017D01C41AD50AE60AF70AB701A601B6
:100250002D9B13C0483E53406105710548F015B809
:100260008093040190930501A0930601B0930701C8
:10027000209791F20E940000CFCF483E5340610585
:0C0280007105B0F305B9ECCFF894FFCF86
:00000001FF
