:100000000C9435000C945D000C945D000C945D0024
:100010000C945D000C945D000C945D000C945D00EC
:100020000C945D000C945D000C945D000C945D00DC
:100030000C945D000C945D000C945D000C945D00CC
:100040000C945F000C945D000C945D000C945D00BA
:100050000C945D000C945D000C945D000C945D00AC
:100060000C945D000C945D00D60111241FBECFEFEF
:10007000D8E0DEBFCDBF11E0A0E0B1E0E2E1F4E006
:1000800002C005900D92A230B107D9F721E0A2E09D
:10009000B1E001C01D92A532B207E1F710E0C5E35F
:1000A000D0E004C02197FE010E940102C433D107B1
:1000B000C9F70E94A9000C9407020C9400001F923B
:1000C0000F920FB60F9211242F933F938F939F930C
:1000D000AF93BF938091210190912201A0912301C0
:1000E000B09124013091200123E0230F2D3758F5E2
:1000F0000196A11DB11D20932001809321019093B1
:100100002201A0932301B093240180911C019091BE
:100110001D01A0911E01B0911F010196A11DB11DED
:1001200080931C0190931D01A0931E01B0931F01A9
:10013000BF91AF919F918F913F912F910F900FBEE3
:100140000F901F90189526E8230F0296A11DB11D50
:10015000D2CF789484B5826084BD84B5816084BD3B
:1001600085B5826085BD85B5816085BD80916E0055
:10017000816080936E001092810080918100826086
:1001800080938100809181008160809381008091C3
:1001900080008160809380008091B10084608093B2
:1001A000B1008091B00081608093B00080917A00AE
:1001B000846080937A0080917A00826080937A00D4
:1001C00080917A00816080937A0080917A008068C3
:1001D00080937A001092C100C0E0D0E02FB7F8946D
:1001E0008091210190912201A0912301B0912401DD
:1001F0002FBF409118015091190160911A0170911F
:100200001B018C019D01041B150B260B370BB9013B
:10021000A801493151056105710508F441C0809379
:10022000180190931901A0931A01B0931B0120911A
:100230000001309101018091160190911701820F08
:10024000931F9093170180931601409114015091D0
:100250001501481B590B6C01092E000CEE08FF0814
:10026000C0920201D0920301E0920401F0920501D4
:10027000052E000C660B770B409306015093070187
:100280006093080170930901815292408F33974027
:1002900038F0319521953109309301012093000107
:1002A0003FB7F89480911C0190911D01A0911E010F
:1002B000B0911F0126B5A89B05C02F3F19F00196EC
:1002C000A11DB11D3FBFBA2FA92F982F8827820FDC
:1002D000911DA11DB11D42E0880F991FAA1FBB1FD0
:1002E0004A95D1F7E0911201F091130120813091EC
:1002F0000E01F22EF32240910A0150910B01609100
:100300000C0170910D016C01FF2079F17D01C41A7F
:10031000D50AE60AF70A4091020150910301609163
:10032000040170910501C416D506E606F706B8F07B
:1003300040910601509107016091080170910901F7
:1003400030910F012323452B462B472B69F58093D2
:100350000A0190930B01A0930C01B0930D0120971B
:1003600009F43CCF0E94000039CF7D01C41AD50AA0
:10037000E60AF70A409106015091070160910801D1
:1003800070910901C416D506E606F70640F34091C0
:100390000201509103016091040170910501452B08
:1003A000462B472BA1F2232B2083D1CF80E292E072
:1003B0009093170180931601E2E0F1E01086118618
:1003C0001286138684E290E09787868785E290E024
:1003D000918B808B259A80E29EE4938B828B108296
:1003E00011821282138280E29EE4A0E0B0E0848356
:1003F0009583A683B78381E084878EEF8587209AD3
:100400000895EE0FFF1F0590F491E02D0994F894E4
:02041000FFCF1C
:020412000A00DE
:00000001FF
