:100000000C9435000C9452000C9452000C94520045
:100010000C9452000C9452000C9452000C94520018
:100020000C9452000C9452000C9452000C94520008
:100030000C9452000C9452000C9452000C945200F8
:100040000C9474010C9452000C9452000C945200C5
:100050000C9452000C9452000C9452000C945200D8
:100060000C9452000C945200180211241FBECFEFC2
:10007000D8E0DEBFCDBF21E0A0E0B1E001C01D921D
:10008000A939B207E1F710E0C5E3D0E004C0219739
:10009000FE010E948F02C433D107C9F70E94BE013E
:1000A0000C9495020C940000CF92DF92EF92FF9295
:1000B000FC01108611861286138680E492E4AFE07C
:1000C000B0E080839183A283B38384839583A683E6
:1000D000B78324E230E03787268785E290E0918B72
:1000E000808B40E244874FED4587259A40E25EE4ED
:1000F000538B428B108211821282138240E2C42EF3
:100100004EE4D42EE12CF12CC482D582E682F78213
:1001100037872687918B808B81E090E001C0880F24
:100120006A95EAF78487982F9095958794B1892BE3
:1001300084B9FF90EF90DF90CF900895CF92DF9237
:10014000EF92FF920F931F93CF93DF93DC018FB752
:10015000F8940091950110919601209197013091AA
:1001600098018FBF1C964D915D916D917C911F9769
:1001700068017901C41AD50AE60AF70A18964D9162
:100180005C911997052E000C660B770BED91FC9195
:100190001197C416D506E606F706F0F11C960D93E6
:1001A0001D932D933C931F9716962D913C91179775
:1001B0001A968D919C911B97820F931F1B969C936F
:1001C0008E931A9742895389481B590B6C01092E4B
:1001D000000CEE08FF08C082D182E282F382052E75
:1001E000000C660B770B44835583668377831496E4
:1001F0004D915C911597841795073CF412964D919B
:100200005C911397481759073CF0319521953109B6
:1002100017963C932E9316973FB7F89480919001D0
:1002200090919101A0919201B091930126B5A89B64
:1002300005C02F3F19F00196A11DB11D3FBFBA2F78
:10024000A92F982F8827820F911DA11DB11D42E073
:10025000880F991FAA1FBB1F4A95D1F7C089D18962
:1002600028813485122F132340855185628573853B
:100270006C017D01C41AD50AE60AF70A112309F1B7
:100280004081518162817381C416D506E606F70666
:1002900078F04481558166817781452B462B472B29
:1002A00019F035852323288380879187A287B38718
:1002B000DF91CF911F910F91FF90EF90DF90CF9042
:1002C00008954481558166817781C416D506E60676
:1002D000F70670F34081518162817381452B462B73
:1002E000472B11F3232BDFCF1F920F920FB60F92E4
:1002F00011242F933F938F939F93AF93BF9380913C
:10030000950190919601A0919701B091980130913B
:10031000940123E0230F2D3758F50196A11DB11D3F
:10032000209394018093950190939601A093970157
:10033000B09398018091900190919101A0919201C8
:10034000B09193010196A11DB11D809390019093EE
:100350009101A0939201B0939301BF91AF919F91AE
:100360008F913F912F910F900FBE0F901F90189576
:1003700026E8230F0296A11DB11DD2CF789484B533
:10038000826084BD84B5816084BD85B5826085BD91
:1003900085B5816085BD80916E00816080936E001F
:1003A0001092810080918100826080938100809111
:1003B00081008160809381008091800081608093C2
:1003C00080008091B10084608093B1008091B00082
:1003D00081608093B00080917A00846080937A007D
:1003E00080917A00826080937A0080917A008160A7
:1003F00080937A0080917A00806880937A001092CE
:10040000C100C0E0D0E080E891E00E949E0080E75B
:1004100091E00E949E0080E691E00E949E0080E5AF
:1004200091E00E949E00209771F30E940000EBCFA4
:1004300070E060E08CE391E00E94540061E070E0C5
:1004400088E291E00E94540062E070E084E191E073
:100450000E94540063E070E080E091E00E9454004C
:10046000E0E8F1E014861586168617868CE391E0A5
:100470009183808384EF91E09383828340ED57E002
:10048000558344832AE030E037832683AFE0B0E031
:10049000B187A08793878287E0E7F1E0148615860D
:1004A0001686178668E271E0718360839383828386
:1004B000558344833783268344E150E05187408746
:1004C00093878287E0E6F1E0148615861686178604
:1004D00084E191E09183808380E293E0938382833F
:1004E0006CED75E07583648337832683B187A087BD
:1004F00093878287E0E5F1E01486158616861786D5
:10050000A0E0B1E0B183A083938382837583648389
:100510003783268351874087938782870895EE0F1C
:0E052000FF1F0590F491E02D0994F894FFCF91
:00000001FF
