:100000000C9435000C9452000C9452000C94520045
:100010000C9452000C9452000C9452000C94520018
:100020000C9452000C9452000C9452000C94520008
:100030000C9452000C9452000C9452000C945200F8
:100040000C9454000C9452000C9452000C945200E6
:100050000C9452000C9452000C9452000C945200D8
:100060000C9452000C945200690111241FBECFEF72
:10007000D8E0DEBFCDBF21E0A0E0B1E001C01D921D
:10008000AB31B207E1F710E0C5E3D0E004C021973F
:10009000FE010E948D01C433D107C9F70E949E0062
:1000A0000C9493010C9400001F920F920FB60F92C4
:1000B00011242F933F938F939F93AF93BF9380917E
:1000C000170190911801A0911901B0911A01309176
:1000D000160123E0230F2D3758F50196A11DB11D00
:1000E000209316018093170190931801A093190192
:1000F000B0931A018091120190911301A091140103
:10010000B09115010196A11DB11D8093120190932C
:100110001301A0931401B0931501BF91AF919F916A
:100120008F913F912F910F900FBE0F901F901895B8
:1001300026E8230F0296A11DB11DD2CF789484B575
:10014000826084BD84B5816084BD85B5826085BDD3
:1001500085B5816085BD80916E00816080936E0061
:100160001092810080918100826080938100809153
:100170008100816080938100809180008160809304
:1001800080008091B10084608093B1008091B000C4
:1001900081608093B00080917A00846080937A00BF
:1001A00080917A00826080937A0080917A008160E9
:1001B00080937A0080917A00806880937A00109210
:1001C000C100C0E0D0E03FB7F89480911201909157
:1001D0001301A0911401B091150126B5A89B05C08B
:1001E0002F3F19F00196A11DB11D3FBFBA2FA92FB6
:1001F000982F8827820F911DA11DB11D42E0880F05
:10020000991FAA1FBB1F4A95D1F7E0911001F091E9
:100210001101208130910C01F22EF322409108014E
:100220005091090160910A0170910B016C01FF204E
:1002300079F17D01C41AD50AE60AF70A4091000156
:10024000509101016091020170910301C416D5061D
:10025000E606F706B8F0409104015091050160915F
:1002600006017091070130910D012323452B462B88
:10027000472B69F58093080190930901A0930A0127
:10028000B0930B01209709F49ECF0E9400009BCFF2
:100290007D01C41AD50AE60AF70A4091040150917B
:1002A00005016091060170910701C416D506E606A6
:1002B000F70640F340910001509101016091020165
:1002C00070910301452B462B472BA1F2232B208352
:1002D000D1CFE0E0F1E0108611861286138684E625
:1002E00090E0A0E0B0E080839183A283B38388ECA8
:1002F00090E0A0E0B0E084839583A683B78384E296
:1003000090E09787868785E290E0918B808B80E2F2
:1003100084878FED8587259A0895EE0FFF1F05903E
:0A032000F491E02D0994F894FFCF4A
:00000001FF
