:100000000C9435000C9452000C9452000C94520045
:100010000C9452000C9452000C9452000C94520018
:100020000C9452000C9452000C9452000C94520008
:100030000C9452000C9452000C9452000C945200F8
:100040000C9454000C9452000C9452000C945200E6
:100050000C9452000C9452000C9452000C945200D8
:100060000C9452000C945200910111241FBECFEF4A
:10007000D8E0DEBFCDBF21E0A0E0B1E001C01D921D
:10008000AF31B207E1F710E0C5E3D0E004C021973B
:10009000FE010E94E002C433D107C9F70E949E000E
:1000A0000C94E6020C9400001F920F920FB60F9270
:1000B00011242F933F938F939F93AF93BF9380917E
:1000C0001B0190911C01A0911D01B0911E01309166
:1000D0001A0123E0230F2D3758F50196A11DB11DFC
:1000E00020931A0180931B0190931C01A0931D0182
:1000F000B0931E018091160190911701A0911801F3
:10010000B09119010196A11DB11D80931601909324
:100110001701A0931801B0931901BF91AF919F915E
:100120008F913F912F910F900FBE0F901F901895B8
:1001300026E8230F0296A11DB11DD2CF789484B575
:10014000826084BD84B5816084BD85B5826085BDD3
:1001500085B5816085BD80916E00816080936E0061
:100160001092810080918100826080938100809153
:100170008100816080938100809180008160809304
:1001800080008091B10084608093B1008091B000C4
:1001900081608093B00080917A00846080937A00BF
:1001A00080917A00826080937A0080917A008160E9
:1001B00080937A0080917A00806880937A00109210
:1001C000C100C0901201D0901301E0901401F09092
:1001D0001501C701B6010E94E50120E030E040E0D2
:1001E0005FE30E944B020E94B6016093000170938E
:1001F00001018093020190930301C61AD70AE80A0D
:10020000F90AC0920401D0920501E0920601F09231
:100210000701C0E0D0E03FB7F894809116019091BB
:100220001701A0911801B091190126B5A89B05C02E
:100230002F3F19F00196A11DB11D3FBFBA2FA92F65
:10024000982F8827820F911DA11DB11D42E0880FB4
:10025000991FAA1FBB1F4A95D1F7E0911001F09199
:100260001101208130910C01F22EF32240910801FE
:100270005091090160910A0170910B016C01FF20FE
:1002800079F17D01C41AD50AE60AF70A4091000106
:10029000509101016091020170910301C416D506CD
:1002A000E606F706B8F0409104015091050160910F
:1002B00006017091070130910D012323452B462B38
:1002C000472B69F58093080190930901A0930A01D7
:1002D000B0930B01209709F49ECF0E9400009BCFA2
:1002E0007D01C41AD50AE60AF70A4091040150912B
:1002F00005016091060170910701C416D506E60656
:10030000F70640F340910001509101016091020114
:1003100070910301452B462B472BA1F2232B208301
:10032000D1CFE0E0F1E0108611861286138684E2D8
:1003300090E09787868785E290E0918B808B259A65
:1003400080E29EE4A0E0B0E0828B938BA48BB58B1F
:10035000108211821282138284839583A683B783CD
:1003600081E084878EEF8587209A08950E942A0273
:1003700088F09F5798F0B92F9927B751B0F0E1F066
:10038000660F771F881F991F1AF0BA95C9F714C016
:10039000B13091F00E944402B1E008950C944402FF
:1003A000672F782F8827B85F39F0B93FCCF386954F
:1003B00077956795B395D9F73EF4909580957095AC
:1003C00061957F4F8F4F9F4F0895E89409C097FB29
:1003D0003EF490958095709561957F4F8F4F9F4F1C
:1003E0009923A9F0F92F96E9BB279395F695879560
:1003F00077956795B795F111F8CFFAF4BB0F11F423
:1004000060FF1BC06F5F7F4F8F4F9F4F16C08823C9
:1004100011F096E911C0772321F09EE8872F762FFF
:1004200005C0662371F096E8862F70E060E02AF040
:100430009A95660F771F881FDAF7880F969587952C
:1004400097F9089557FD9058440F551F59F05F3F95
:1004500071F04795880F97FB991F61F09F3F79F0E6
:1004600087950895121613061406551FF2CF469568
:10047000F1DF08C0161617061806991FF1CF8695EA
:100480007105610508940895E894BB2766277727CE
:10049000CB0197F908950E945E020C94CF020E944E
:1004A000C10238F00E94C80220F0952311F00C948C
:1004B000B8020C94BE0211240C9445020E94220240
:1004C00070F3959FC1F3950F50E0551F629FF001A7
:1004D000729FBB27F00DB11D639FAA27F00DB11DC0
:1004E000AA1F649F6627B00DA11D661F829F222749
:1004F000B00DA11D621F739FB00DA11D621F839FD0
:10050000A00D611D221F749F3327A00D611D231FA5
:10051000849F600D211D822F762F6A2F11249F57F3
:1005200050409AF0F1F088234AF0EE0FFF1FBB1FF6
:10053000661F771F881F91505040A9F79E3F5105B5
:1005400080F00C94B8020C9445025F3FE4F3983EAF
:10055000D4F3869577956795B795F795E7959F5F5F
:10056000C1F7FE2B880F911D9695879597F90895F1
:1005700097F99F6780E870E060E008959FEF80EC56
:10058000089500240A9416161706180609060895F9
:1005900000240A9412161306140605060895092E5F
:1005A0000394000C11F4882352F0BB0F40F4BF2BCE
:1005B00011F460FF04C06F5F7F4F8F4F9F4F08950E
:1005C000EE0FFF1F0590F491E02D0994F894FFCFF2
:00000001FF
