:100000000C9435000C9452000C9452000C94520045
:100010000C9452000C9452000C9452000C94520018
:100020000C9452000C9452000C9452000C94520008
:100030000C9452000C9452000C9452000C945200F8
:100040000C9411010C9452000C9452000C94520028
:100050000C9452000C9452000C9452000C945200D8
:100060000C9452000C945200210211241FBECFEFB9
:10007000D8E0DEBFCDBF21E0A0E0B1E001C01D921D
:10008000A935B207E1F710E0C5E3D0E004C021973D
:10009000FE010E943902C433D107C9F70E945B01F7
:1000A0000C943F020C940000CF92DF92EF92FF92EB
:1000B000FC01108611861286138680E492E4AFE07C
:1000C000B0E080839183A283B38384839583A683E6
:1000D000B78324E230E03787268785E290E0918B72
:1000E000808B40E244874FED4587259A40E25EE4ED
:1000F000538B428B108211821282138240E2C42EF3
:100100004EE4D42EE12CF12CC482D582E682F78213
:1001100037872687918B808B81E090E001C0880F24
:100120006A95EAF78487982F9095958794B1892BE3
:1001300084B9FF90EF90DF90CF900895CF92DF9237
:10014000EF92FF920F931F93FC019FB7F894409199
:10015000500150915101609152017091530186B547
:10016000A89B06C08F3F21F04F5F5F4F6F4F7F4FBF
:100170009FBF762F652F542F4427480F511D611DB7
:10018000711D22E0440F551F661F771F2A95D1F776
:10019000A089B1898C919485F82EF922008511856A
:1001A000228533856A01FF2021F17B01C01AD10A23
:1001B000E20AF30A0081118122813381C016D1063F
:1001C000E206F30678F00481158126813781012B40
:1001D000022B032B19F0958589238C934087518737
:1001E000628773871F910F91FF90EF90DF90CF9000
:1001F00008957B01C01AD10AE20AF30A048115812D
:1002000026813781C016D106E206F30658F3008135
:10021000118122813381012B022B032BF9F2892BCF
:10022000DCCF1F920F920FB60F9211242F933F93A2
:100230008F939F93AF93BF938091550190915601F7
:10024000A0915701B09158013091540123E0230F40
:100250002D3758F50196A11DB11D209354018093AF
:10026000550190935601A0935701B0935801809186
:10027000500190915101A0915201B091530101960A
:10028000A11DB11D8093500190935101A093520183
:10029000B0935301BF91AF919F918F913F912F9157
:1002A0000F900FBE0F901F90189526E8230F02960F
:1002B000A11DB11DD2CF789484B5826084BD84B570
:1002C000816084BD85B5826085BD85B5816085BD51
:1002D00080916E00816080936E0010928100809109
:1002E0008100826080938100809181008160809391
:1002F0008100809180008160809380008091B100B6
:1003000084608093B1008091B00081608093B000E0
:1003100080917A00846080937A0080917A00826074
:1003200080937A0080917A00816080937A00809136
:100330007A00806880937A001092C10080914E010B
:1003400090914F018C5D95404CED55E060E070E080
:1003500040933C0150933D0160933E0170933F01F7
:10036000092E000CAA0BBB0B809340019093410116
:10037000A0934201B093430180913A0190913B01D7
:100380008C5D9540409328015093290160932A0188
:1003900070932B01092E000CAA0BBB0B80932C0130
:1003A00090932D01A0932E01B0932F0180912601EF
:1003B000909127018C5D9540409314015093150155
:1003C0006093160170931701092E000CAA0BBB0B4A
:1003D0008093180190931901A0931A01B0931B0107
:1003E00080911201909113018C5D95404093000122
:1003F000509301016093020170930301092E000CD8
:10040000AA0BBB0B8093040190930501A0930601F6
:10041000B0930701C0E0D0E08CE391E00E949E0021
:1004200088E291E00E949E0084E191E00E949E009B
:1004300080E091E00E949E00209771F30E940000EE
:10044000EBCF70E060E08CE391E00E94540061E04B
:1004500070E088E291E00E94540062E070E084E184
:1004600091E00E94540063E070E080E091E00C9421
:100470005400EE0FFF1F0590F491E02D0994F894BD
:02048000FFCFAC
:00000001FF
