:100000000C9462000C948A000C948A000C948A0070
:100010000C948A000C948A000C948A000C948A0038
:100020000C948A000C948A000C948A000C948A0028
:100030000C948A000C948A000C948A000C948A0018
:100040000C9433060C948A000C948A000C948A0059
:100050000C948A000C948A000C948A000C948A00F8
:100060000C9414050C948A00000000002400270062
:100070002A0000000000250028002B0000000000DE
:1000800023002600290004040404040404040202DA
:100090000202020203030303030301020408102007
:1000A0004080010204081020010204081020000012
:1000B0000008000201000003040700000000000027
:1000C00000007D0611241FBECFEFD8E0DEBFCDBFFC
:1000D00011E0A0E0B1E0EAE7FBE102C005900D927B
:1000E000A43EB107D9F723E0A4EEB1E001C01D9210
:1000F000A032B207E1F710E0C2E6D0E004C02197D9
:10010000FE010E94C30BC136D107C9F70E94C30686
:100110000C94BB0D0C94000085ED8093BC00809185
:10012000BC0084FDFCCF1092A002089520917A02B9
:10013000260F3327331F21323105ECF42091A00222
:10014000FC0190E080E0243069F082E00895A09105
:100150007A022191AC01485A5D4FA40FB52FB11D11
:100160002C930196861798F380917A02680F60931A
:100170007A0280E0089581E0089508950895089531
:10018000E091550280915402E81730F4F0E0EC5C05
:10019000FD4F808190E008958FEF9FEF089590913B
:1001A0005502809154022FEF3FEF981748F4E92F42
:1001B000F0E0EC5CFD4F208130E09F5F90935502B2
:1001C000C90108958091540290915502891B990BA1
:1001D0000895CF92DF92EF92FF920F931F93CF93E8
:1001E000DF937C01CB018A0120913302222389F025
:1001F000EB016B01C40ED51ECC15DD0569F06991CC
:10020000D701ED91FC910190F081E02DC701099596
:10021000F3CF642F0E949600C801DF91CF911F9108
:100220000F91FF90EF90DF90CF900895CF93DF93E1
:100230001F92CDB7DEB76983209133022223F9F0F4
:1002400020915602203258F021E030E0FC01338347
:10025000228390E080E00F90DF91CF91089580910C
:100260005702E82FF0E0ED5EFD4F998190838F5F9C
:10027000809357028093560281E090E0ECCF61E0DA
:10028000CE0101960E949600F7CF833081F028F4CA
:10029000813099F08230A9F008958730A9F0883034
:1002A000C9F08430B1F4809180008F7D03C08091CB
:1002B00080008F7780938000089584B58F7784BD08
:1002C000089584B58F7DFBCF8091B0008F778093A8
:1002D000B00008958091B0008F7DF9CFCF93DF9368
:1002E000282F30E0F901E255FF4F8491F901E656DD
:1002F000FF4FD491F901EA57FF4FC491CC23A1F0ED
:1003000081110E944501EC2FF0E0EE0FFF1FE45831
:10031000FF4FA591B491EC91ED2381E090E009F4B9
:1003200080E0DF91CF91089580E090E0FACF1F93B5
:10033000CF93DF93282F30E0F901E255FF4F8491EE
:10034000F901E656FF4FD491F901EA57FF4FC491E6
:10035000CC23A9F0162F81110E944501EC2FF0E06B
:10036000EE0FFF1FEE58FF4FA591B4918FB7F89491
:10037000EC91111108C0D095DE23DC938FBFDF9183
:10038000CF911F910895DE2BF8CFCF93DF9390E0AC
:10039000FC01E656FF4F24918A579F4FFC01849140
:1003A0008823D1F090E0880F991FFC01E859FF4F96
:1003B000A591B491FC01EE58FF4FC591D4916230E4
:1003C00071F49FB7F8943C91822F809583238C938E
:1003D000E8812E2B28839FBFDF91CF9108958FB79F
:1003E000F894EC912E2B2C938FBFF6CF3FB7F89457
:1003F00080910F0290911002A0911102B09112020F
:1004000026B5A89B05C02F3F19F00196A11DB11D6F
:100410003FBFBA2FA92F982F8827BC01CD01620FAB
:10042000711D811D911D42E0660F771F881F991F66
:100430004A95D1F708958F929F92AF92BF92CF9233
:10044000DF92EF92FF924B015C010E94F6016B017B
:100450007C010E94F6016C197D098E099F09683E96
:10046000734081059105A8F321E0821A9108A10843
:10047000B10888EEC80E83E0D81EE11CF11C81147F
:100480009104A104B10429F7FF90EF90DF90CF9081
:10049000BF90AF909F908F9008952FB7F894609180
:1004A0000B0270910C0280910D0290910E022FBFF1
:1004B0000895AF92BF92CF92DF92EF92FF920F9387
:1004C0001F93CF93DF936C017B018B01040F151FEA
:1004D000EB015E01AE18BF08C017D10759F0699152
:1004E000D601ED91FC910190F081E02DC6010995B6
:1004F000892B79F7C501DF91CF911F910F91FF9063
:10050000EF90DF90CF90BF90AF900895FC014481B1
:1005100055816081718180E193E00C945902CF9301
:10052000FC01C48121E020933302C093E4011092C6
:100530005702109256028385682B86EC92E00E9447
:10054000160190915602913208F03FC08091A002AE
:100550008111FCCF82E08093A00281E08093A2020F
:100560008FEF80939F021092C4029093C302A3E185
:10057000B2E0E3EAF2E080E098132FC01092C502E7
:100580008091C502CC0FC82BC093C5028091A102F7
:10059000813039F51092A1028091C5028093BB0091
:1005A0008091BC0083FDF8CF85EC8093BC008091E6
:1005B000A0028230E1F380919F028F3F31F0809161
:1005C0009F02803211F080919F0210925702109288
:1005D000560210923302CF9108952D9121938F5F8F
:1005E000CBCF85EEE2CF089590E080E00895FC0146
:1005F00001900020E9F73197AF01481B590BBC016E
:1006000080E193E00C945902CF92DF92EF92FF9237
:100610000F931F93CF93DF93CDB7DEB762970FB6DB
:10062000F894DEBF0FBECDBF8C01CB01F801118263
:10063000108213821282158214824AE09E012F5F7B
:100640003F4F6901B9010E94DE0AF60101900020C6
:10065000E9F731977F01EC18FD08F801808191815D
:10066000009729F0228133812E153F0590F4B701C0
:100670006F5F7F4F0E94EE0CF801009799F0918315
:100680008083F382E28224813581232B11F4FC01E3
:100690001082F801F582E482B601808191810E9486
:1006A000B40D0DC080819181009711F00E94650CFE
:1006B000F8011182108215821482138212826296CE
:1006C0000FB6F894DEBF0FBECDBFDF91CF911F9163
:1006D0000F91FF90EF90DF90CF9008950F931F93AD
:1006E000CF938C01C62F0E948F026C2F6460C801CB
:1006F0000E948F026C2F6B7FC8010E948F0283ECD7
:1007000090E00197F1F7CF911F910F9108950F930A
:100710001F93CF93DF938C01D62FC42F607F642B60
:100720000E946E0380E1D89FB00111246C2BC80198
:10073000DF91CF911F910F910C946E03CF93DF93B4
:10074000CDB7DEB728970FB6F894DEBF0FBECDBF8A
:1007500098E0EEE0F1E0DE01119601900D929A959D
:10076000E1F790911903961708F46FEF262F30E008
:10077000220F331F41E050E04C0F5D1F240F351F47
:10078000F9016081680F606840E080E193E028969D
:100790000FB6F894DEBF0FBECDBFDF91CF910C94A2
:1007A0008703CF93DF9300D000D000D0CDB7DEB762
:1007B00080910702882309F45FC0809109028111AA
:1007C00044C08091080260E0811150C00E949E03E5
:1007D0008DE791E00E94F70260E086E00E949E03B0
:1007E0006091EB017091EC01CE0101960E9404032F
:1007F000CE0101960E94860289819A810E94650C31
:1008000061E080E00E949E0388E491E00E94F7028C
:1008100061E086E00E949E036091020170910301F5
:10082000CE0101960E940403CE0101960E94860229
:1008300089819A810E94650C26960FB6F894DEBFD6
:100840000FBECDBFDF91CF91089560E080E00E94A0
:100850009E038FE491E00E94F70261E080E00E9435
:100860009E038AE591E00E94F702E6CF80E00E94B5
:100870009E038AE691E0EFCF8091E50160E0882356
:1008800061F180E00E949E0389E791E00E94F702F7
:1008900060E08AE00E949E036091E7017091E801A8
:1008A000CE0101960E940403CE0101960E948602A9
:1008B00089819A810E94650C61E080E00E949E031C
:1008C00084E891E00E94F70261E08AE00E949E03C2
:1008D0006091E9017091EA01A3CF80E00E949E033C
:1008E0008FE891E00E94F70261E080E00E949E03A1
:1008F0009091E60180910001992341F0882319F03D
:1009000080EA91E0B0CF81EB91E0ADCF882319F080
:1009100082EC91E0A8CF83ED91E0A5CF40E061E0CB
:1009200080E193E00E9487038BE39FE10197F1F759
:10093000089541E00E94870381E090E00895FF92CE
:100940000F931F93CF93DF93EC018B01FB01F0809A
:100950000E94130BF81621F06F2DCE010E941B0B85
:10096000F801F1802196CE010E94130BF81621F0B8
:100970006F2DCE010E941B0BC801DF91CF911F91FB
:100980000F91FF9008950F931F93CF93DF938C01E6
:10099000EB010E94130B8883C80101960E94130B80
:1009A0008983CE01DF91CF911F910F910895CF924E
:1009B000DF92EF92FF92CF93DF9380E480937C00ED
:1009C00080917A00806480937A0080917A0086FD1D
:1009D000FCCF8091780060917900762F682F072EE8
:1009E000000C880B990B611571058105910511F0BB
:1009F0000E94D50ACDEED1E084E0C82ED12CE12CA6
:100A0000F12C0E94860AA70196010E94290B699386
:100A1000799382E0C130D807A1F7DF91CF91FF90A1
:100A2000EF90DF90CF9008951F920F920FB60F9224
:100A300011242F933F934F935F936F937F938F93E3
:100A40009F93AF93BF93EF93FF938091B900887FFB
:100A5000803609F44AC0F0F5883209F4A7C018F5C9
:100A6000803109F49BC0B8F4882309F4F9C08830B8
:100A700009F494C0FF91EF91BF91AF919F918F9135
:100A80007F916F915F914F913F912F910F900FBE8A
:100A90000F901F901895883109F488C0803251F763
:100AA00080939F0214C0803409F49DC040F48033C9
:100AB000B9F38833F9F680939F0285ECB0C0803596
:100AC00009F485C0883509F496C0883499F60E94E7
:100AD0008C00D0CF883909F48CC038F5883729F0DC
:100AE00050F4883611F0803729F683E08093A00215
:100AF00010929E0257C0883809F47BC0803919F0E3
:100B0000803809F0B7CF80919E02803208F071C022
:100B1000E0919E0281E08E0F80939E028091BB0047
:100B2000F0E0E258FD4F80833DC0803B39F0E0F4B7
:100B3000803A09F479C0883A09F09CCF84E0809328
:100B4000A00210927B0210927A02E0917802F0915A
:100B50007902099580917A0281110FC081E080931A
:100B60007A021092580209C0803C09F4A6CF883C52
:100B700009F4A3CF883B09F07DCFE0917B0281E0AF
:100B80008E0F80937B02F0E0E85AFD4F80818093C6
:100B9000BB0090917B0280917A0229C08091C502AE
:100BA0008093BB0085EC8093BC0064CF9091C4021D
:100BB0008091C302981758F5E091C40281E08E0F2E
:100BC0008093C402F0E0ED55FD4F8081E9CFE091C4
:100BD000C40281E08E0F8093C4028091BB00F0E0DC
:100BE000ED55FD4F80839091C4028091C302981708
:100BF000C8F285E8D8CFE091C40281E08E0F8093DF
:100C0000C4028091BB00F0E0ED55FD4F80838091E0
:100C1000A20281115CCF81E08093A10284EA8093DB
:100C2000BC001092A00226CF85EC8093BC001092ED
:100C3000A00280919E02803230F4E0919E02F0E0AA
:100C4000E258FD4F108260919E0270E0E0917C02BC
:100C5000F0917D028EE792E0099510929E020ACFF4
:100C600010929F0234CF1F920F920FB60F92112451
:100C70002F933F938F939F93AF93BF9380910B02DA
:100C800090910C02A0910D02B0910E0230910A02D7
:100C900023E0230F2D3758F50196A11DB11D209398
:100CA0000A0280930B0290930C02A0930D02B09362
:100CB0000E0280910F0290911002A0911102B0914A
:100CC00012020196A11DB11D80930F029093100294
:100CD000A0931102B0931202BF91AF919F918F9197
:100CE0003F912F910F900FBE0F901F90189526E8FF
:100CF000230F0296A11DB11DD2CF1092C9021092EE
:100D0000C80288EE93E0A0E0B0E08093CA0290931E
:100D1000CB02A093CC02B093CD028EE291E09093EF
:100D2000C7028093C602109213031092120380E44C
:100D300091E0909311038093100387E28093140352
:100D400080E18093180382E08093190310921A03C4
:100D500088E080931B03809102019091030190939E
:100D60000F0380930E03E2EDF2E0108211821282F3
:100D7000138215821482178216823A9683E0EE302F
:100D8000F80799F70895789484B5826084BD84B596
:100D9000816084BD85B5826085BD85B5816085BD76
:100DA00080916E00816080936E001092810080912E
:100DB00081008260809381008091810081608093B6
:100DC0008100809180008160809380008091B100DB
:100DD00084608093B1008091B00081608093B00006
:100DE00080917A00846080937A0080917A0082609A
:100DF00080937A0080917A00816080937A0080915C
:100E00007A00806880937A001092C10067EE71E0EA
:100E100090E080E00E94C30469EE71E082E090E01F
:100E20000E94C3041092550210925402109257026D
:100E3000109256021092A00281E08093A2021092BA
:100E4000A10261E082E10E94970161E083E10E94DA
:100E500097018091B9008E7F8093B9008091B9008D
:100E60008D7F8093B90088E48093B80085E48093F7
:100E7000BC008DEB90E090937902809378028EEB2A
:100E800090E090937D0280937C02109215038091F4
:100E90001903823018F098E09093150390911A038B
:100EA000992339F0813029F480911503846080936F
:100EB000150362E370E080E090E00E941B02609105
:100EC0001B0380E193E00E948F0268EE73E080E0F4
:100ED00090E00E941B0260E380E193E00E946E03B9
:100EE000CBE4D6E4CE010197F1F760E380E193E033
:100EF0000E946E032197F1F760E380E193E00E9486
:100F00006E0383E592E00197F1F760E280E193E000
:100F10000E946E0360911503606240E080E193E0FF
:100F20000E94870384E08093160340E06CE080E138
:100F300093E00E9487030E948E0482E0809317034F
:100F400040E066E080E193E00E94870340E062E0D9
:100F500080E193E00E9487038BE39FE10197F1F723
:100F600088E080931B0360E080E193E00E948F02A1
:100F70000E948E040E94D70461E081E10E94C501B5
:100F800061E083E00E94C50161E085E00E94C50147
:100F900061E087E00E94C50161E089E00E94C5012F
:100FA000CEE1D1E08881229662E00E94C50121E075
:100FB000CA32D207B9F7C8EE8C2EC3E09C2EA12C02
:100FC000B12C8091090281116FC1809108028111B9
:100FD0006BC180910702882309F466C1C0910201A8
:100FE000D0910301C130D10531F468EE73E080E0A7
:100FF00090E00E941B0268EE73E080E090E00E94A7
:101000001B02BDEEEB2EB1E0FB2E10E000E00C1752
:101010001D07B4F5D701ED91FD917D01EE0FFF1F86
:10102000EA5EFE4FC08061E08C2D0E94970161E076
:1010300081E10E949701D090010166E970E080E0B3
:1010400090E0D11004C060E971E080E090E00E947F
:101050001B0260E08C2D0E94970160E081E10E94FC
:10106000970166E970E080E090E0D11004C060E98B
:1010700071E080E090E00E941B020F5F1F4FC7CF1E
:10108000D0930F03C0930E030E944D02609303029E
:101090007093040280930502909306027724739460
:1010A000209102013091030180910E0390910F0372
:1010B0002817390709F0B2C1809109028111AEC128
:1010C000809108028111AAC180910702882309F446
:1010D000A5C1C2EDD2E0EEE1CE2EE1E0DE2E10E0C1
:1010E00000E00E94D103F6018081F2E0CF0ED11C16
:1010F0000E946E01998788872E813F81821793070E
:1011000051F00E944D02688379838A839B8388858E
:1011100099859F838E830E944D02288139814A815F
:101120005B81621B730B840B950B6230710581052B
:10113000910508F444C0EC80FD808885998521E004
:10114000E216F10409F04EC0892BA9F5F801EE0F63
:10115000FF1FEA5EFE4F608061E0862D0E949701CE
:1011600061E081E10E949701E0900102F0900202AB
:10117000F701EE0FFF1FE351FE4F808191810817A9
:10118000190729F58091010122E330E0811102C0A5
:1011900024E130E08091EB019091EC01820F931FEC
:1011A0009093EC018093EB018FEFE81AF80AF0922C
:1011B0000202E0920102888599859D838C830F5FEE
:1011C0001F4F2A960430110509F08BCF69CF70921A
:1011D000090260E0862D0E94970160E081E10E9493
:1011E0009701E2CFE114F10431F7019721F7F801FB
:1011F000EE0FFF1FEA5EFE4F60E080810E949701C4
:1012000060E081E10E9497018091010290910202C9
:1012100020910201309103018217930761F6019634
:1012200090930301809302010E944D0220910302DA
:10123000309104024091050250910602621B730B2B
:10124000840B950BA50194010E94920B223031056D
:101250001CF12530310524F12A3031051CF444E11C
:10126000E42EF12C8091EB019091EC01E80EF91E37
:10127000F092EC01E092EB01109202021092010256
:101280000E94D10380910201909103010B970CF40D
:1012900092CF709208028FCF34E6E32EF12CE2CF8A
:1012A00022E3E22EF12CDECF86E2E82E81E0F82E5A
:1012B000C2EDD2E004E010E0CC24C394D12C0E9413
:1012C000D103D7018C91B2E0EB0EF11C0E946E01AC
:1012D00099AB88AB2EA53FA58217930751F00E94CA
:1012E0004D0268A779A78AA79BA788A999A99FA754
:1012F0008EA70E944D0248A459A46AA47BA4641935
:10130000750986099709623071058105910508F410
:1013100080C02CA53DA588A999A92130310509F0E7
:10132000A4C0892B09F071C061E081E10E9497019E
:1013300080910802811129C08091090281112EC07B
:101340008091E601882309F475C00530110509F084
:1013500071C080910001882309F468C010920101D6
:1013600081E0809307021092E6010E948E046AEFEA
:1013700070E080E090E00E941B0260E081E10E944A
:10138000970143C005E010E09ACF8091E901909168
:10139000EA0101969093EA018093E9012091E70127
:1013A0003091E8018091EB019091EC018217930755
:1013B0000CF4C9019093E8018093E70167EE71E0B6
:1013C00090E080E00E949F0469EE71E082E090E08E
:1013D0000E949F041092EC011092EB011092020205
:1013E00010920102D0920301C0920201D0920F0329
:1013F000C0920E0310920902109208021092070286
:1014000081E0809300010E94D70488A999A99DA733
:101410008CA72A960530110509F0B4CF80E090E042
:10142000892B09F4CECD0E940000CBCD81E08093C2
:10143000010196CF8091E501882319F01092E50112
:1014400094CF809100010430110529F491E089279F
:1014500080930001DACF882321F081E08093E601B8
:1014600084CF81E08093E50180CF232B71F6019733
:1014700061F683CF8F929F92AF92BF92CF92DF920D
:10148000EF92FF92CF93DF93EC01688179818A819B
:101490009B81611571058105910521F464E279ED67
:1014A0008BE597E02DE133EF41E050E00E94290BFE
:1014B00049015A019B01AC01A7EAB1E40E94480B23
:1014C0006B017C01ACEEB4EFA50194010E94560BB8
:1014D000C60ED71EE81EF91EF7FE06C081E0C81A28
:1014E000D108E10880E8F80AC882D982EA82FB8242
:1014F000C701B6019F77DF91CF91FF90EF90DF900A
:10150000CF90BF90AF909F908F9008958F929F92B1
:10151000AF92BF92CF92DF92EF92FF92609104015F
:101520007091050180910601909107016115710587
:101530008105910521F464E279ED8BE597E02DE1D9
:1015400033EF41E050E00E94290B49015A019B0111
:10155000AC01A7EAB1E40E94480B6B017C01ACEE40
:10156000B4EFA50194010E94560BC60ED71EE81ECB
:10157000F91EF7FE06C081E0C81AD108E10880E82C
:10158000F80AC0920401D0920501E0920601F0929F
:101590000701C701B6019F77FF90EF90DF90CF90D2
:1015A000BF90AF909F908F900895609304017093C7
:1015B000050180930601909307010895BB274A30E7
:1015C00031F4992322F4BDE2909581959F4F0C94BC
:1015D000EA0ABB27FB015527AA27880F991FAA1FD4
:1015E000A41710F0A41B83955051B9F7A05DAA333E
:1015F00008F0A95DA193009779F7B111B193119209
:10160000CB010C94030BDC01FC01672F7191772354
:10161000E1F7329704C07C916D9370836291AE17AD
:10162000BF07C8F30895F999FECF92BD81BDF89A1E
:10163000992780B50895262FF999FECF1FBA92BD3C
:1016400081BD20BD0FB6F894FA9AF99A0FBE0196A3
:101650000895052E97FB1EF400940E94400B57FD41
:1016600007D00E94920B07FC03D04EF40C94400B61
:1016700050954095309521953F4F4F4F5F4F0895BE
:1016800090958095709561957F4F8F4F9F4F0895EE
:101690000E94B40BA59F900DB49F900DA49F800D48
:1016A000911D11240895B7FF0C94480B0E94480B1C
:1016B000821B930B08952F923F924F925F926F92ED
:1016C0007F928F929F92AF92BF92CF92DF92EF92D2
:1016D000FF920F931F93CF93DF93CDB7DEB7CA1B53
:1016E000DB0B0FB6F894DEBF0FBECDBF09942A887E
:1016F000398848885F846E847D848C849B84AA8426
:10170000B984C884DF80EE80FD800C811B81AA81B2
:10171000B981CE0FD11D0FB6F894DEBF0FBECDBF7D
:10172000ED010895A1E21A2EAA1BBB1BFD010DC0FD
:10173000AA1FBB1FEE1FFF1FA217B307E407F50781
:1017400020F0A21BB30BE40BF50B661F771F881F5D
:10175000991F1A9469F760957095809590959B01F3
:10176000AC01BD01CF010895A29FB001B39FC0019C
:10177000A39F700D811D1124911DB29F700D811DBD
:101780001124911D0895EE0FFF1F0590F491E02D97
:1017900009940F931F93CF93DF938230910510F438
:1017A00082E090E0E0911E03F0911F0330E020E022
:1017B000B0E0A0E0309799F42115310509F44AC052
:1017C000281B390B24303105D8F58A819B8161159E
:1017D000710589F1FB0193838283FE0111C0408171
:1017E00051810281138148175907E0F048175907C2
:1017F00099F4109761F012960C93129713961C931C
:101800003296CF01DF91CF911F910F9108950093F0
:101810001E0310931F03F4CF2115310551F0421719
:10182000530738F0A901DB019A01BD01DF01F8017E
:10183000C1CFEF01F9CF90931F0380931E03CDCF4B
:10184000FE01E20FF31F81939193225031093983F6
:101850002883D7CF20911C0330911D03232B41F403
:1018600020910A0130910B0130931D0320931C033A
:1018700020910801309109012115310541F42DB75E
:101880003EB740910C0150910D01241B350BE091A6
:101890001C03F0911D03E217F307A0F42E1B3F0B6E
:1018A0002817390778F0AC014E5F5F4F24173507D2
:1018B00048F04E0F5F1F50931D0340931C0381930C
:1018C00091939FCFF0E0E0E09CCFCF93DF93009720
:1018D000E9F0FC01329713821282A0911E03B091AD
:1018E0001F03ED0130E020E01097A1F42081318149
:1018F000820F931F20911C0330911D032817390775
:1019000009F061C0F0931D03E0931C03DF91CF91B8
:101910000895EA01CE17DF07E8F54A815B819E0151
:1019200041155105B1F7E901FB83EA8349915991CA
:10193000C40FD51FEC17FD0761F4808191810296D9
:10194000840F951FE90199838883828193819B830A
:101950008A83F0E0E0E012968D919C9113970097B6
:10196000B9F52D913C911197CD010296820F931FED
:1019700020911C0330911D032817390739F6309741
:1019800051F510921F0310921E03B0931D03A093F4
:101990001C03BCCFD383C28340815181840F951F28
:1019A000C817D90761F44E5F5F4F88819981480F4E
:1019B000591F518340838A819B81938382832115A0
:1019C000310509F0B0CFF0931F03E0931E039ECFC3
:1019D000FD01DC01C0CF13821282D7CFB0E0A0E0BE
:1019E000E4EFFCE00C945D0B8C01009751F4CB010B
:1019F0000E94C90B8C01C801CDB7DEB7E0E10C94A1
:101A0000790BFC01E60FF71F9C0122503109E21708
:101A1000F30708F49DC0D901CD91DC911197C61749
:101A2000D70798F0C530D10530F3CE01049786175B
:101A3000970708F3C61BD70B2297C193D1936D93D9
:101A40007C93CF010E94650CD6CF5B01AC1ABD0A16
:101A50004C018C0E9D1EA0911E03B0911F03512CB2
:101A6000412CF12CE12C109731F580911C039091C1
:101A70001D038815990509F05CC04616570608F045
:101A800058C08091080190910901009741F48DB7E9
:101A90009EB740910C0150910D01841B950BE817E6
:101AA000F90708F055C0F0931D03E0931C03F901FA
:101AB00071836083A0CF8D919C91119712966C9049
:101AC000129713967C901397A815B90559F56C01D8
:101AD00042E0C40ED11CCA14DB0420F1AC014A1947
:101AE0005B09DA011296159780F062827382518346
:101AF0004083D9016D937C93E114F10471F0D70117
:101B00001396FC93EE93129776CF22968C0F9D1F1F
:101B1000F90191838083F301EFCFF0931F03E093EA
:101B20001E0369CF4816590608F42C017D01D30124
:101B30009ACFCB010E94C90B7C01009749F0AE01FE
:101B4000B8010E94AB0DC8010E94650C870153CFFC
:101B500010E000E050CFFB01DC0102C001900D92CB
:101B600041505040D8F70895FB01DC0101900D92DF
:0A1B70000020E1F70895F894FFCF7C
:101B7A0001010100010000000000200380000000B4
:101B8A004000140054000300050007000900020089
:101B9A000400060008000A000B00000000001601FD
:101BAA00E900F402BF00E200CF00C000000000001C
:101BBA0099045902F402F3024C4556454C3A00473F
:101BCA00414D45204F56455221005052455353200E
:101BDA00544F2052455455524E0047414D452043DB
:101BEA004F4D504C45544521004849474853434FAF
:101BFA0052453A00544F54414C2057494E3A002A14
:101C0A002A434F4C4F52204D454D4F52592A2A00D4
:101C1A003E204E4F524D414C2020202048415244F4
:101C2A000020204E4F524D414C20203E2048415228
:101C3A0044003E20504C415920202020205354413A
:101C4A005453002020504C41592020203E20535408
:041C5A00415453009E
:00000001FF
