:100000000C9434000C9451000C9451000C94510049
:100010000C9451000C9451000C9451000C9451001C
:100020000C9451000C9451000C9451000C9451000C
:100030000C9451000C9451000C9451000C945100FC
:100040000C9453000C9451000C9451000C945100EA
:100050000C9451000C9451000C9451000C945100DC
:100060000C9451000C94510011241FBECFEFD8E026
:10007000DEBFCDBF11E0A0E0B1E0ECE4F2E002C0F1
:1000800005900D92A830B107D9F721E0A8E0B1E0C2
:1000900001C01D92A631B207E1F70E949D000C94A9
:1000A00024010C9400001F920F920FB60F9211249E
:1000B0002F933F938F939F93AF93BF9380911201A0
:1000C00090911301A0911401B0911501309111018B
:1000D00023E0230F2D3758F50196A11DB11D209364
:1000E00011018093120190931301A0931401B09316
:1000F000150180910D0190910E01A0910F01B09119
:1001000010010196A11DB11D80930D0190930E0168
:10011000A0930F01B0931001BF91AF919F918F9168
:100120003F912F910F900FBE0F901F90189526E8CA
:10013000230F0296A11DB11DD2CF789484B58260A1
:1001400084BD84B5816084BD85B5826085BD85B57B
:10015000816085BD80916E00816080936E001092F9
:100160008100809181008260809381008091810074
:100170008160809381008091800081608093800005
:100180008091B10084608093B1008091B000816063
:100190008093B00080917A00846080937A0080918F
:1001A0007A00826080937A0080917A0081608093E7
:1001B0007A0080917A00806880937A001092C10062
:1001C0008FE084B9C0E0D0E017E08FB7F894409199
:1001D00012015091130160911401709115018FBFAC
:1001E0008091090190910A01A0910B01B0910C013D
:1001F0006A017B01C81AD90AEA0AFB0AD701C601BB
:100200000497A105B105C0F0E09108010E2E000C85
:10021000FF0BE050FF4F808185B98091080181502C
:1002200087FD0FC0809308014093090150930A0194
:1002300060930B0170930C01209739F20E9400002B
:0C024000C4CF10930801F0CFF894FFCF5A
:08024C0001030206040C08097D
:00000001FF
