:100000000C9434000C9446000C9446000C94B700F9
:100010000C9446000C9446000C9446000C94460048
:100020000C9446000C9446000C9446000C94460038
:100030000C9446000C9446000C9446000C94460028
:100040000C946D000C9446000C9446000C944600F1
:100050000C9446000C9446000C9446000C94460008
:100060000C9446000C94460011241FBECFEFD8E03C
:10007000DEBFCDBF21E0A0E0B1E001C01D92AA30FB
:10008000B207E1F70E94C6000C9448010C940000EE
:100090003FB7F8948091060190910701A091080163
:1000A000B091090126B5A89B05C02F3F19F0019614
:1000B000A11DB11D3FBFBA2FA92F982F8827BC01C2
:1000C000CD01620F711D811D911D42E0660F771FEA
:1000D000881F991F4A95D1F708951F920F920FB666
:1000E0000F9211242F933F938F939F93AF93BF93BE
:1000F0008091020190910301A0910401B09105014A
:100100003091010123E0230F2D3758F50196A11DF1
:10011000B11D209301018093020190930301A093EC
:100120000401B09305018091060190910701A0910F
:100130000801B09109010196A11DB11D809306012E
:1001400090930701A0930801B0930901BF91AF916B
:100150009F918F913F912F910F900FBE0F901F9005
:10016000189526E8230F0296A11DB11DD2CF1F922C
:100170000F920FB60F9211248F9381E080930001AC
:100180008F910F900FBE0F901F901895789484B5A3
:10019000826084BD84B5816084BD85B5826085BD83
:1001A00085B5816085BD80916E00816080936E0011
:1001B0001092810080918100826080938100809103
:1001C00081008160809381008091800081608093B4
:1001D00080008091B10084608093B1008091B00074
:1001E00081608093B00080917A00846080937A006F
:1001F00080917A00826080937A0080917A00816099
:1002000080937A0080917A00806880937A001092BF
:10021000C10080E284B98FB780688FBF81E080938E
:10022000680080936B0010E2C0E0D0E08091000194
:10023000882361F115B9109200010E9448004B011A
:100240005C018AE0C82ED12CE12CF12C0E944800E0
:10025000681979098A099B09683E734081059105EF
:10026000A8F321E0C21AD108E108F10888EE880E4F
:1002700083E0981EA11CB11CC114D104E104F10457
:1002800029F7209799F20E940000D0CF15B8F9CF36
:04029000F894FFCF10
:00000001FF
