:100000000C945D000C9485000C9485000C94850084
:100010000C9485000C9485000C9485000C9485004C
:100020000C9485000C9485000C9485000C9485003C
:100030000C9485000C9485000C9485000C9485002C
:100040000C942D020C9485000C949D020C94770264
:100050000C9485000C9485000C9485000C9485000C
:100060000C9485000C9485000000000024002700FB
:100070002A0000000000250028002B0004040404CE
:100080000404040402020202020203030303030342
:10009000010204081020408001020408102001021F
:1000A00004081020000000080002010000030407FB
:1000B00000000000000000001D0411241FBECFEF4F
:1000C000D8E0DEBFCDBF11E0A0E0B1E0E2E5F9E0AD
:1000D00002C005900D92AC32B107D9F721E0ACE235
:1000E000B1E001C01D92A23DB207E1F710E0CDE5FD
:1000F000D0E004C02197FE010E94A104CC35D107B5
:10010000C9F70E94CF020C94A7040C940000E7EA00
:10011000F0E02491E3E9F0E09491EFE7F0E0E4917E
:10012000EE23C9F0222339F0233001F1A8F4213065
:1001300019F1223029F1F0E0EE0FFF1FEE58FF4FCA
:10014000A591B4912FB7F894EC91811126C09095A8
:100150009E239C932FBF08952730A9F02830C9F023
:10016000243049F7209180002F7D03C0209180002A
:100170002F7720938000DFCF24B52F7724BDDBCFEE
:1001800024B52F7DFBCF2091B0002F772093B000B6
:10019000D2CF2091B0002F7DF9CF9E2BDACFAF9236
:1001A000BF92CF92DF92EF92FF920F931F93CF9364
:1001B000DF936C017B018B01040F151FEB015E01C6
:1001C000AE18BF08C017D10759F06991D601ED915B
:1001D000FC910190F081E02DC6010995892B79F7FA
:1001E000C501DF91CF911F910F91FF90EF90DF90AC
:1001F000CF90BF90AF900895FC01538D448D252F73
:1002000030E0842F90E0821B930B541710F0CF96B0
:10021000089501970895FC01918D828D981761F0E2
:10022000A28DAE0FBF2FB11D5D968C91928D9F5FF9
:100230009F73928F90E008958FEF9FEF0895FC01D8
:10024000918D828D981731F0828DE80FF11D858D8B
:1002500090E008958FEF9FEF0895FC01918D228D1E
:10026000892F90E0805C9F4F821B91098F739927A3
:10027000089585E391E00E942D0121E0892B09F486
:1002800020E0822F089580E090E0892B29F00E94E1
:10029000390181110C9400000895FC01A48DA80F70
:1002A000B92FB11DA35ABF4F2C91848D90E00196B8
:1002B0008F739927848FA689B7892C93A089B189D8
:1002C0008C91837080648C93938D848D981306C079
:1002D0000288F389E02D80818F7D80830895EF92DD
:1002E000FF920F931F93CF93DF93EC0181E0888FF0
:1002F0009B8D8C8D98131AC0E889F989808185FFC0
:1003000015C09FB7F894EE89FF896083E889F98961
:1003100080818370806480839FBF81E090E0DF9163
:10032000CF911F910F91FF90EF900895F62E0B8DB6
:1003300010E00F5F1F4F0F731127E02E8C8D8E1171
:100340000CC00FB607FCFACFE889F989808185FFD8
:10035000F5CFCE010E944D01F1CFEB8DEC0FFD2FBB
:10036000F11DE35AFF4FF0829FB7F8940B8FEA8993
:10037000FB8980818062CFCFCF93DF93EC01888DA2
:100380008823B9F0AA89BB89E889F9898C9185FD10
:1003900003C0808186FD0DC00FB607FCF7CF8C919E
:1003A00085FFF2CF808185FFEDCFCE010E944D0108
:1003B000E9CFDF91CF910895FC0101900020E9F78A
:1003C0003197AF01481B590BBC0185E391E00C94B8
:1003D000CF008F929F92AF92BF920F931F93CF93B4
:1003E000DF93CDB7DEB7A1970FB6F894DEBF0FBE8F
:1003F000CDBF19A2423008F44AE08E010F5D1F4FB5
:10040000842E912CB12CA12CA50194010E94690489
:10041000E62FB901CA01EA30F4F4E05DD801EE93A9
:100420008D01232B242B252B79F790E080E010976A
:1004300019F0CD010E94DC01A1960FB6F894DEBF41
:100440000FBECDBFDF91CF911F910F91BF90AF90A5
:100450009F908F900895E95CE1CF1F920F920FB6A5
:100460000F9211242F933F938F939F93AF93BF933A
:100470008091310190913201A0913301B09134010A
:100480003091300123E0230F2D3758F50196A11D3F
:10049000B11D209330018093310190933201A093DC
:1004A0003301B093340180912C0190912D01A091E2
:1004B0002E01B0912F010196A11DB11D80932C0139
:1004C00090932D01A0932E01B0932F01BF91AF9176
:1004D0009F918F913F912F910F900FBE0F901F9082
:1004E000189526E8230F0296A11DB11DD2CF1F92A9
:1004F0000F920FB60F9211242F933F934F935F9358
:100500006F937F938F939F93AF93BF93EF93FF93DB
:1005100085E391E00E944D01FF91EF91BF91AF9172
:100520009F918F917F916F915F914F913F912F910B
:100530000F900FBE0F901F9018951F920F920FB63D
:100540000F9211242F938F939F93EF93FF93E0913A
:100550004501F09146018081E0914B01F0914C0101
:1005600082FD1BC0908180914E018F5F8F7320911F
:100570004F01821741F0E0914E01F0E0EB5CFE4F3D
:10058000958F80934E01FF91EF919F918F912F91C5
:100590000F900FBE0F901F9018958081F4CF789424
:1005A00084B5826084BD84B5816084BD85B5826078
:1005B00085BD85B5816085BD80916E008160809329
:1005C0006E00109281008091810082608093810092
:1005D00080918100816080938100809180008160A2
:1005E000809380008091B10084608093B1008091FD
:1005F000B00081608093B00080917A008460809325
:100600007A0080917A00826080937A0080917A00EB
:10061000816080937A0080917A00806880937A006C
:100620001092C100E0914501F091460182E0808383
:10063000E0914101F09142011082E0914301F0917B
:1006400044018FEC808310924D01E0914901F091BB
:100650004A0186E08083E0914701F0914801808162
:1006600080618083E0914701F0914801808188603A
:100670008083E0914701F091480180818068808308
:10068000E0914701F091480180818F7D808344246F
:100690004A9453E0552E612C712C03E910E060E080
:1006A000262E60E0362E83E480937C0080917A00D1
:1006B000806480937A0080917A0086FDFCCF8091DF
:1006C0007800C0917900DC2FC82F4E010D2E000C50
:1006D000AA08BB082FEF30E0DE010E949A04A301B4
:1006E00092010E944A0469017A01F8016491EFE7DE
:1006F000F0E08491882399F090E0880F991FFC0125
:10070000E859FF4FA591B491FC01EE58FF4F459178
:1007100054918FB7F8949C91692B6C938FBF2115DE
:10072000310509F043C080E00E94870082E191E03A
:100730000E94DC014AE0C501B401D7FF0DC06DE2A3
:1007400085E391E00E946F0166277727CB01681946
:1007500079098A099B094AE00E94E90181E291E056
:100760000E94DC014AE0C701B601F7FE0DC06DE250
:1007700085E391E00E946F0166277727CB016C1912
:100780007D098E099F094AE00E94E90189E291E012
:100790000E94DC012114310409F485CF0E94390143
:1007A000882309F480CF0E9400007DCF2F3F3105C0
:1007B00011F481E0B9CFE7EAF0E08491833019F1D8
:1007C00040F48130B1F08230C9F0203831058CF727
:1007D000AACF873011F1883041F18430B1F7809190
:1007E0008000806280938000D0928B00C0928A004B
:1007F0009DCF84B5806884BDC7BC98CF84B5806226
:1008000084BDC8BC93CF80918000806880938000B5
:10081000D0928900C092880089CF8091B000806812
:100820008093B000C092B30081CF8091B00080620D
:100830008093B000C092B40079CFE5E3F1E0138279
:10084000128288EE93E0A0E0B0E084839583A683D3
:10085000B78384E091E09183808385EC90E0958775
:10086000848784EC90E09787868780EC90E0918B7A
:10087000808B81EC90E0938B828B82EC90E0958B67
:10088000848B86EC90E0978B868B118E128E138E64
:10089000148E0895052E97FB1EF400940E946104A7
:1008A00057FD07D00E94690407FC03D04EF40C9456
:1008B000610450954095309521953F4F4F4F5F4FC4
:1008C000089590958095709561957F4F8F4F9F4FBC
:1008D0000895A1E21A2EAA1BBB1BFD010DC0AA1F81
:1008E000BB1FEE1FFF1FA217B307E407F50720F099
:1008F000A21BB30BE40BF50B661F771F881F991F14
:100900001A9469F760957095809590959B01AC015C
:10091000BD01CF010895A29FB001B39FC001A39F65
:10092000700D811D1124911DB29F700D811D112428
:10093000911D08950E948B04B7FF0895821B930BAD
:100940000895EE0FFF1F0590F491E02D0994F8949F
:02095000FFCFD7
:10095200000000006F01CF00FC00BC012D010B0163
:100962001F01506F74656E74696F6D657465723ABC
:0C09720000202C204C45443A000D0A00E7
:00000001FF
