:100000000C9435000C9452000C9452000C94520045
:100010000C9452000C9452000C9452000C94520018
:100020000C9452000C9452000C9452000C94520008
:100030000C9452000C9452000C9452000C945200F8
:100040000C94C9000C9452000C9452000C94520071
:100050000C9452000C9452000C9452000C945200D8
:100060000C9452000C945200A80111241FBECFEF33
:10007000D8E0DEBFCDBF21E0A0E0B1E001C01D921D
:10008000AB33B207E1F710E0C5E3D0E004C021973D
:10009000FE010E94D801C433D107C9F70E9456015E
:1000A0000C94DE010C940000CF92DF92EF92FF924D
:1000B0000F931F93CF93DF93DC019FB7F894409188
:1000C000320150913301609134017091350186B550
:1000D000A89B06C08F3F21F04F5F5F4F6F4F7F4F50
:1000E0009FBF762F652F542F4427480F511D611D48
:1000F000711D22E0440F551F661F771F2A95D1F707
:1001000017960D911D912D913C911A976A017B01D3
:10011000C01AD10AE20AF30A12960D911D912D918F
:100120003C911597C016D106E206F30608F1ED9151
:10013000FC9111970281138184859F01280F311D45
:1001400087FD3A95E9018C8116969C911697E801F6
:10015000888384859923A9F08F5F84879585891783
:100160000CF0148617964D935D936D937C931A97BC
:10017000DF91CF911F910F91FF90EF90DF90CF9083
:1001800008958150848787FFEDCF858581508487CE
:10019000E9CF1F920F920FB60F9211242F933F9326
:1001A0008F939F93AF93BF938091370190913801C4
:1001B000A0913901B0913A013091360123E0230F2B
:1001C0002D3758F50196A11DB11D2093360180935E
:1001D000370190933801A0933901B0933A0180918F
:1001E000320190913301A0913401B0913501019613
:1001F000A11DB11D8093320190933301A09334016E
:10020000B0933501BF91AF919F918F913F912F9105
:100210000F900FBE0F901F90189526E8230F02969F
:10022000A11DB11DD2CFFC0114866334A1F064344A
:10023000C9F084E290E09183808385E290E093832B
:100240008283A081B1818C918F608C93463489F038
:100250004834D1F0089587E290E09183808388E26A
:1002600090E0EDCF8AE290E0918380838BE290E092
:10027000E6CF84E0858783E0848386E085838CE015
:10028000868389E08783089588E0858791E0948359
:1002900093E0958392E0968396E0978394E090872D
:1002A0009CE09187828789E083870895789484B55C
:1002B000826084BD84B5816084BD85B5826085BD62
:1002C00085B5816085BD80916E00816080936E00F0
:1002D00010928100809181008260809381008091E2
:1002E0008100816080938100809180008160809393
:1002F00080008091B10084608093B1008091B00053
:1003000081608093B00080917A00846080937A004D
:1003100080917A00826080937A0080917A00816077
:1003200080937A0080917A00806880937A0010929E
:10033000C100C0E0D0E087E291E00E9454008CE16F
:1003400091E00E9454002097B1F30E940000F3CF87
:1003500046E462E48EE091E00E94130148E464E424
:1003600080E091E00E941301E7E2F1E0178210863D
:10037000118612868EE091E09183808380ED97E074
:10038000A0E0B0E082839383A483B58321E0268339
:10039000ECE1F1E0178210861186128620E031E050
:1003A0003183208382839383A483B5831682089547
:1003B000EE0FFF1F0590F491E02D0994F894FFCF04
:00000001FF
