:100000000C9434000C9451000C9451000C94510049
:100010000C9451000C9451000C9451000C9451001C
:100020000C9451000C9451000C9451000C9451000C
:100030000C9451000C9451000C9451000C945100FC
:100040000C9453000C9451000C9451000C945100EA
:100050000C9451000C9451000C9451000C945100DC
:100060000C9451000C94510011241FBECFEFD8E026
:10007000DEBFCDBF11E0A0E0B1E0EAE4F2E002C0F3
:1000800005900D92A430B107D9F721E0A4E0B1E0CA
:1000900001C01D92A231B207E1F70E949D000C94AD
:1000A00023010C9400001F920F920FB60F9211249F
:1000B0002F933F938F939F93AF93BF9380910E01A4
:1000C00090910F01A0911001B091110130910D019B
:1000D00023E0230F2D3758F50196A11DB11D209364
:1000E0000D0180930E0190930F01A0931001B09326
:1000F00011018091090190910A01A0910B01B09129
:100100000C010196A11DB11D8093090190930A0174
:10011000A0930B01B0930C01BF91AF919F918F9170
:100120003F912F910F900FBE0F901F90189526E8CA
:10013000230F0296A11DB11DD2CF789484B58260A1
:1001400084BD84B5816084BD85B5826085BD85B57B
:10015000816085BD80916E00816080936E001092F9
:100160008100809181008260809381008091810074
:100170008160809381008091800081608093800005
:100180008091B10084608093B1008091B000816063
:100190008093B00080917A00846080937A0080918F
:1001A0007A00826080937A0080917A0081608093E7
:1001B0007A0080917A00806880937A001092C10062
:1001C0008FE084B9C0E0D0E08FB7F89440910E0181
:1001D00050910F0160911001709111018FBF8091BA
:1001E000050190910601A0910701B09108018A01D3
:1001F0009B01081B190B2A0B3B0BD901C801059762
:10020000A105B105C0F0E09104010E2E000CFF0B1A
:10021000E050FF4F808185B9809104018F5F843069
:100220007CF4809304014093050150930601609390
:10023000070170930801209739F20E940000C4CF93
:0A02400010920401F0CFF894FFCFF4
:04024A0001020408A1
:00000001FF
