:100000000C9462000C948A000C948A000C948A0070
:100010000C948A000C948A000C948A000C948A0038
:100020000C948A000C948A000C948A000C948A0028
:100030000C948A000C948A000C948A000C948A0018
:100040000C940B020C948A000C947B020C945502C5
:100050000C948A000C948A000C948A000C948A00F8
:100060000C948A000C948A000000000025002800EF
:100070002B0000000000240027002A0000000000E0
:1000800023002600290004040404040404040202DA
:100090000202020203030303030301020408102007
:1000A0004080010204081020010204081020000012
:1000B0000008000201000003040700000000000027
:1000C0000000AD0211241FBECFEFD8E0DEBFCDBFD0
:1000D00011E0A0E0B1E0E4E8F9E002C005900D9283
:1000E000A032B107D9F721E0A0E2B1E001C01D9232
:1000F000AE3FB207E1F710E0C2E6D0E004C02197BE
:10010000FE010E94BA04C136D107C9F70E9401035B
:100110000C94C0040C940000AF92BF92CF92DF9277
:10012000EF92FF920F931F93CF93DF936C017B01AC
:100130008B01040F151FEB015E01AE18BF08C0173D
:10014000D10759F06991D601ED91FC910190F081B0
:10015000E02DC6010995892B79F7C501DF91CF9173
:100160001F910F91FF90EF90DF90CF90BF90AF90D5
:100170000895FC01538D448D252F30E0842F90E0AD
:10018000821B930B541710F0CF9608950197089592
:10019000FC01918D828D981761F0A28DAE0FBF2F5B
:1001A000B11D5D968C91928D9F5F9F73928F90E0B1
:1001B00008958FEF9FEF0895FC01918D828D981720
:1001C00031F0828DE80FF11D858D90E008958FEF5D
:1001D0009FEF0895FC01918D228D892F90E0805C26
:1001E0009F4F821B91098F739927089589E291E0AF
:1001F0000E94EA0021E0892B09F420E0822F089573
:1002000080E090E0892B29F00E94F60081110C9487
:1002100000000895FC01A48DA80FB92FB11DA35AA9
:10022000BF4F2C91848D90E001968F739927848F16
:10023000A689B7892C93A089B1898C918370806439
:100240008C93938D848D981306C00288F389E02DDA
:1002500080818F7D80830895EF92FF920F931F938B
:10026000CF93DF93EC0181E0888F9B8D8C8D981369
:100270001AC0E889F989808185FF15C09FB7F89475
:10028000EE89FF896083E889F989808183708064C1
:1002900080839FBF81E090E0DF91CF911F910F910C
:1002A000FF90EF900895F62E0B8D10E00F5F1F4F1B
:1002B0000F731127E02E8C8D8E110CC00FB607FC2A
:1002C000FACFE889F989808185FFF5CFCE010E94B8
:1002D0000A01F1CFEB8DEC0FFD2FF11DE35AFF4F1B
:1002E000F0829FB7F8940B8FEA89FB898081806246
:1002F000CFCFCF93DF93EC01888D8823B9F0AA8903
:10030000BB89E889F9898C9185FD03C0808186FDD0
:100310000DC00FB607FCF7CF8C9185FFF2CF80811F
:1003200085FFEDCFCE010E940A01E9CFDF91CF9189
:100330000895FC0101900020E9F73197AF01481BB7
:10034000590BBC0189E291E00C948C008F929F9232
:10035000AF92BF920F931F93CF93DF93CDB7DEB7CA
:10036000A1970FB6F894DEBF0FBECDBF19A24230E1
:1003700008F44AE08E010F5D1F4F842E912CB12CA2
:10038000A12CA50194010E949804E62FB901CA018D
:10039000EA30F4F4E05DD801EE938D01232B242B99
:1003A000252B79F790E080E0109719F0CD010E949D
:1003B0009901A1960FB6F894DEBF0FBECDBFDF91B5
:1003C000CF911F910F91BF90AF909F908F90089504
:1003D000E95CE1CFCF92DF92EF92FF92CF93DF9370
:1003E0006B017C016DE289E291E00E942C01EC013D
:1003F00066277727CB016C197D098E099F094AE092
:100400000E94A6018C0F9D1FDF91CF91FF90EF906E
:10041000DF90CF9008951F920F920FB60F92112484
:100420002F933F938F939F93AF93BF938091250119
:1004300090912601A0912701B091280130912401CB
:1004400023E0230F2D3758F50196A11DB11D2093F0
:1004500024018093250190932601A0932701B09356
:1004600028018091200190912101A0912201B09159
:1004700023010196A11DB11D8093200190932101BC
:10048000A0932201B0932301BF91AF919F918F91CF
:100490003F912F910F900FBE0F901F90189526E857
:1004A000230F0296A11DB11DD2CF1F920F920FB63E
:1004B0000F9211242F933F934F935F936F937F93EA
:1004C0008F939F93AF93BF93EF93FF9389E291E054
:1004D0000E940A01FF91EF91BF91AF919F918F917F
:1004E0007F916F915F914F913F912F910F900FBE30
:1004F0000F901F9018951F920F920FB60F92112414
:100500002F938F939F93EF93FF93E0913901F09195
:100510003A018081E0913F01F091400182FD1BC0D2
:100520009081809142018F5F8F73209143018217E8
:1005300041F0E0914201F0E0E75DFE4F958F80933E
:100540004201FF91EF919F918F912F910F900FBEDC
:100550000F901F9018958081F4CF10922C0110926B
:100560002B0188EE93E0A0E0B0E080932D01909302
:100570002E01A0932F01B09330018CE091E0909375
:100580002A018093290185EC90E0909336018093B5
:10059000350184EC90E0909338018093370180EC32
:1005A00090E090933A018093390181EC90E0909330
:1005B0003C0180933B0182EC90E090933E0180935C
:1005C0003D0186EC90E09093400180933F011092B2
:1005D0004201109243011092440110924501E6EC51
:1005E000F1E0118210821482158216821782118620
:1005F0001086138612863E9681E0EE3FF80789F753
:100600000895789484B5826084BD84B5816084BD8A
:1006100085B5826085BD85B5816085BD80916E00A0
:10062000816080936E0010928100809181008260D1
:10063000809381008091810081608093810080910E
:1006400080008160809380008091B10084608093FD
:10065000B1008091B00081608093B00080917A00F9
:10066000846080937A0080917A00826080937A001F
:1006700080917A00816080937A0080917A0080680E
:1006800080937A001092C100E0913901F0913A0113
:1006900082E08083E0913501F09136011082E09193
:1006A0003701F09138018FEC808310924101E09185
:1006B0003D01F0913E0186E08083E0913B01F091A5
:1006C0003C01808180618083E0913B01F0913C019D
:1006D000808188608083E0913B01F0913C018081C2
:1006E00080688083E0913B01F0913C0180818F7DA7
:1006F0008083A0E0B1E028E031E0C6ECD1E08D914C
:100700009D919B838A839927FC01E656FF4F449174
:100710008A579F4FFC0184918823D1F090E0880F85
:10072000991FFC01EE58FF4F65917491FC01E85947
:10073000FF4F059114919FB7F894FB015081842FCE
:10074000809585238083F8018081482B40839FBF5B
:100750002E962A173B0799F60EEF11E020E0E22EC5
:1007600020E0F22EC6ECD1E08A819B819927FC0122
:10077000E255FF4F2491FC01E656FF4F3491FC01F6
:10078000EA57FF4FE49190E080E0EE23E1F022236E
:1007900059F0233009F477C008F06AC0213009F419
:1007A00078C0223009F479C0F0E0EE0FFF1FE45862
:1007B000FF4FA591B491EC913E2341E020E009F474
:1007C00040E0842F922F9D878C872A853B852817B0
:1007D000390799F02FB7F89480912501909126015F
:1007E000A0912701B09128012FBF8C839D83AE83F8
:1007F000BF838C859D859B878A872FB7F8948091CE
:10080000250190912601A0912701B09128012FBFC9
:100810004C815D816E817F81841B950BA60BB70B8C
:10082000C397A105B10598F0C884D9848C859D85AE
:10083000F1E0CF16D104F1F5892B29F48881998153
:100840000196998388838C859D85998788872E96C4
:100850000C171D0709F088CFE114F10409F482CFC9
:100860000E94F600882309F47DCF0E9400007ACF11
:100870002730B1F02830D1F0243009F095CF8091A5
:1008800080008F7D03C0809180008F7780938000EF
:100890008BCF84B58F7784BD87CF84B58F7DFBCF19
:1008A0008091B0008F778093B0007ECF8091B000B0
:1008B0008F7DF9CFC114D10431F6019721F686EC72
:1008C000A82E81E0B82E23E0C216D104F1F0F50184
:1008D00060817181072E000C880B990B97FF11C066
:1008E0000E94EA018AE191E00E949901FFEFCF1A8C
:1008F000DF0A2EE0A20EB11C84E0C816D10419F75D
:10090000A2CF4AE00E94A601EDCF6091F001709164
:10091000F101072E000C880B990B97FF05C00E9470
:10092000EA018CE191E0E0CF4AE00E94A601F9CF14
:10093000A1E21A2EAA1BBB1BFD010DC0AA1FBB1FE3
:10094000EE1FFF1FA217B307E407F50720F0A21B55
:10095000B30BE40BF50B661F771F881F991F1A94C2
:1009600069F760957095809590959B01AC01BD01EC
:10097000CF010895EE0FFF1F0590F491E02D09942B
:04098000F894FFCF19
:100984000200030004000500000000002C018C009C
:10099400B9007901EA00C800DC0009000D0A000072
:00000001FF
